{
  "contractName": "BountyBabe",
  "abi": [
    {
      "constant": true,
      "inputs": [
        {
          "name": "",
          "type": "uint256"
        },
        {
          "name": "",
          "type": "uint256"
        }
      ],
      "name": "bounties_submissions",
      "outputs": [
        {
          "name": "",
          "type": "uint256"
        }
      ],
      "payable": false,
      "stateMutability": "view",
      "type": "function",
      "signature": "0x0fb2426c"
    },
    {
      "constant": true,
      "inputs": [
        {
          "name": "",
          "type": "uint256"
        }
      ],
      "name": "submissions",
      "outputs": [
        {
          "name": "bountyId",
          "type": "uint256"
        },
        {
          "name": "submissionId",
          "type": "uint256"
        },
        {
          "name": "submitter",
          "type": "address"
        },
        {
          "name": "description",
          "type": "string"
        },
        {
          "name": "submissionState",
          "type": "uint8"
        }
      ],
      "payable": false,
      "stateMutability": "view",
      "type": "function",
      "signature": "0xad73349e"
    },
    {
      "constant": true,
      "inputs": [
        {
          "name": "",
          "type": "address"
        },
        {
          "name": "",
          "type": "uint256"
        }
      ],
      "name": "users_bounties",
      "outputs": [
        {
          "name": "",
          "type": "uint256"
        }
      ],
      "payable": false,
      "stateMutability": "view",
      "type": "function",
      "signature": "0xcf9d3fd7"
    },
    {
      "constant": true,
      "inputs": [
        {
          "name": "",
          "type": "uint256"
        }
      ],
      "name": "bounties",
      "outputs": [
        {
          "name": "bountyId",
          "type": "uint256"
        },
        {
          "name": "creator",
          "type": "address"
        },
        {
          "name": "amount",
          "type": "uint256"
        },
        {
          "name": "description",
          "type": "string"
        },
        {
          "name": "numSubmissions",
          "type": "uint256"
        },
        {
          "name": "bountyState",
          "type": "uint8"
        }
      ],
      "payable": false,
      "stateMutability": "view",
      "type": "function",
      "signature": "0xdc2f8744"
    },
    {
      "inputs": [],
      "payable": false,
      "stateMutability": "nonpayable",
      "type": "constructor",
      "signature": "constructor"
    },
    {
      "payable": true,
      "stateMutability": "payable",
      "type": "fallback"
    },
    {
      "anonymous": false,
      "inputs": [
        {
          "indexed": true,
          "name": "bountyId",
          "type": "uint256"
        }
      ],
      "name": "Open",
      "type": "event",
      "signature": "0x9648cf7f2eb86b564ae3c4a466bc03e87267933667490eb8737a5a3f2a9b284d"
    },
    {
      "anonymous": false,
      "inputs": [
        {
          "indexed": true,
          "name": "bountyId",
          "type": "uint256"
        }
      ],
      "name": "Closed",
      "type": "event",
      "signature": "0x6cc09e7b5c3e49861ebe8f6867e1618fbfc14c8d0e968fde37c4243ca02a6f83"
    },
    {
      "anonymous": false,
      "inputs": [
        {
          "indexed": true,
          "name": "bountyId",
          "type": "uint256"
        },
        {
          "indexed": true,
          "name": "submissionId",
          "type": "uint256"
        }
      ],
      "name": "Submitted",
      "type": "event",
      "signature": "0xd55e7566f1a8979f4d491faa170e9eb764d7e6bb582f1db922a4b7876c42225a"
    },
    {
      "anonymous": false,
      "inputs": [
        {
          "indexed": true,
          "name": "bountyId",
          "type": "uint256"
        },
        {
          "indexed": true,
          "name": "submissionId",
          "type": "uint256"
        }
      ],
      "name": "Accepted",
      "type": "event",
      "signature": "0xb76abbe4f718d3a5437da4640abcd02e3a2e2975873bd4b168d55f8df507780b"
    },
    {
      "anonymous": false,
      "inputs": [
        {
          "indexed": true,
          "name": "bountyId",
          "type": "uint256"
        },
        {
          "indexed": true,
          "name": "submissionId",
          "type": "uint256"
        }
      ],
      "name": "Rejected",
      "type": "event",
      "signature": "0x5303d327e6fbcf486f11a1638b93f30487213df5241a4daa219aaa44f1bab587"
    },
    {
      "anonymous": false,
      "inputs": [
        {
          "indexed": true,
          "name": "bountyId",
          "type": "uint256"
        },
        {
          "indexed": true,
          "name": "submissionId",
          "type": "uint256"
        }
      ],
      "name": "Paid",
      "type": "event",
      "signature": "0xef53713ee4f072f79f4d516084e3f4d15f2cde709d2091235b37ae719c272dd6"
    },
    {
      "constant": false,
      "inputs": [],
      "name": "toggleContractActive",
      "outputs": [],
      "payable": false,
      "stateMutability": "nonpayable",
      "type": "function",
      "signature": "0x1385d24c"
    },
    {
      "constant": false,
      "inputs": [
        {
          "name": "description",
          "type": "string"
        }
      ],
      "name": "createBounty",
      "outputs": [
        {
          "name": "",
          "type": "uint256"
        }
      ],
      "payable": true,
      "stateMutability": "payable",
      "type": "function",
      "signature": "0x06868c4b"
    },
    {
      "constant": false,
      "inputs": [
        {
          "name": "bountyId",
          "type": "uint256"
        },
        {
          "name": "description",
          "type": "string"
        }
      ],
      "name": "createSubmission",
      "outputs": [
        {
          "name": "",
          "type": "uint256"
        }
      ],
      "payable": false,
      "stateMutability": "nonpayable",
      "type": "function",
      "signature": "0xa5e99c4e"
    },
    {
      "constant": true,
      "inputs": [],
      "name": "getBountyCount",
      "outputs": [
        {
          "name": "",
          "type": "uint256"
        }
      ],
      "payable": false,
      "stateMutability": "view",
      "type": "function",
      "signature": "0x06641f7e"
    },
    {
      "constant": true,
      "inputs": [],
      "name": "getSubmissionCount",
      "outputs": [
        {
          "name": "",
          "type": "uint256"
        }
      ],
      "payable": false,
      "stateMutability": "view",
      "type": "function",
      "signature": "0x9999d2ae"
    },
    {
      "constant": true,
      "inputs": [
        {
          "name": "bountyId",
          "type": "uint256"
        }
      ],
      "name": "getBountySubmissionCount",
      "outputs": [
        {
          "name": "",
          "type": "uint256"
        }
      ],
      "payable": false,
      "stateMutability": "view",
      "type": "function",
      "signature": "0xabe13269"
    },
    {
      "constant": true,
      "inputs": [
        {
          "name": "bountyId",
          "type": "uint256"
        },
        {
          "name": "index",
          "type": "uint256"
        }
      ],
      "name": "getBountySubmissionIdByIndex",
      "outputs": [
        {
          "name": "",
          "type": "uint256"
        }
      ],
      "payable": false,
      "stateMutability": "view",
      "type": "function",
      "signature": "0xbd0738f0"
    },
    {
      "constant": true,
      "inputs": [
        {
          "name": "who",
          "type": "address"
        },
        {
          "name": "index",
          "type": "uint256"
        }
      ],
      "name": "getUserBountyIdByIndex",
      "outputs": [
        {
          "name": "",
          "type": "uint256"
        }
      ],
      "payable": false,
      "stateMutability": "view",
      "type": "function",
      "signature": "0x4c5d82f1"
    },
    {
      "constant": true,
      "inputs": [
        {
          "name": "_bountyId",
          "type": "uint256"
        }
      ],
      "name": "fetchBounty",
      "outputs": [
        {
          "name": "bountyId",
          "type": "uint256"
        },
        {
          "name": "creator",
          "type": "address"
        },
        {
          "name": "amount",
          "type": "uint256"
        },
        {
          "name": "description",
          "type": "string"
        },
        {
          "name": "numSubmissions",
          "type": "uint256"
        },
        {
          "name": "bountyState",
          "type": "uint256"
        }
      ],
      "payable": false,
      "stateMutability": "view",
      "type": "function",
      "signature": "0x77ca8117"
    },
    {
      "constant": true,
      "inputs": [
        {
          "name": "_submissionId",
          "type": "uint256"
        }
      ],
      "name": "fetchSubmission",
      "outputs": [
        {
          "name": "bountyId",
          "type": "uint256"
        },
        {
          "name": "submissionId",
          "type": "uint256"
        },
        {
          "name": "submitter",
          "type": "address"
        },
        {
          "name": "description",
          "type": "string"
        },
        {
          "name": "submissionState",
          "type": "uint256"
        }
      ],
      "payable": false,
      "stateMutability": "view",
      "type": "function",
      "signature": "0x61c3b40d"
    },
    {
      "constant": true,
      "inputs": [
        {
          "name": "_who",
          "type": "address"
        }
      ],
      "name": "userNumBounties",
      "outputs": [
        {
          "name": "",
          "type": "uint256"
        }
      ],
      "payable": false,
      "stateMutability": "view",
      "type": "function",
      "signature": "0x1c59f28b"
    },
    {
      "constant": false,
      "inputs": [
        {
          "name": "bountyId",
          "type": "uint256"
        },
        {
          "name": "submissionId",
          "type": "uint256"
        }
      ],
      "name": "acceptSubmission",
      "outputs": [
        {
          "name": "",
          "type": "bool"
        }
      ],
      "payable": false,
      "stateMutability": "nonpayable",
      "type": "function",
      "signature": "0xb1804ffb"
    },
    {
      "constant": false,
      "inputs": [
        {
          "name": "bountyId",
          "type": "uint256"
        },
        {
          "name": "submissionId",
          "type": "uint256"
        }
      ],
      "name": "rejectSubmission",
      "outputs": [
        {
          "name": "",
          "type": "bool"
        }
      ],
      "payable": false,
      "stateMutability": "nonpayable",
      "type": "function",
      "signature": "0xd866164d"
    },
    {
      "constant": false,
      "inputs": [
        {
          "name": "submissionId",
          "type": "uint256"
        }
      ],
      "name": "withdrawBountyAmount",
      "outputs": [
        {
          "name": "",
          "type": "bool"
        }
      ],
      "payable": false,
      "stateMutability": "nonpayable",
      "type": "function",
      "signature": "0x47218725"
    },
    {
      "constant": false,
      "inputs": [
        {
          "name": "bountyId",
          "type": "uint256"
        }
      ],
      "name": "emergencyWithdraw",
      "outputs": [
        {
          "name": "",
          "type": "bool"
        }
      ],
      "payable": false,
      "stateMutability": "nonpayable",
      "type": "function",
      "signature": "0x5312ea8e"
    }
  ],
  "bytecode": "0x60806040526000600260146101000a81548160ff02191690831515021790555034801561002b57600080fd5b5033600260006101000a81548173ffffffffffffffffffffffffffffffffffffffff021916908373ffffffffffffffffffffffffffffffffffffffff160217905550600080819055506000600181905550612a128061008b6000396000f3fe608060405260043610610107576000357c0100000000000000000000000000000000000000000000000000000000900463ffffffff16806306641f7e146101a557806306868c4b146101d05780630fb2426c1461029f5780631385d24c146102f85780631c59f28b1461030f57806347218725146103745780634c5d82f1146103c75780635312ea8e1461043657806361c3b40d1461048957806377ca8117146105855780639999d2ae14610688578063a5e99c4e146106b3578063abe1326914610799578063ad73349e146107e8578063b1804ffb146108f2578063bd0738f01461094f578063cf9d3fd7146109a8578063d866164d14610a17578063dc2f874414610a74575b600015156101a3576040517f08c379a000000000000000000000000000000000000000000000000000000000815260040180806020018281038252602b8152602001807f4e6f206d6573736167652064617461202d2d2066616c6c6261636b2066756e6381526020017f74696f6e206661696c656400000000000000000000000000000000000000000081525060400191505060405180910390fd5b005b3480156101b157600080fd5b506101ba610b85565b6040518082815260200191505060405180910390f35b610289600480360360208110156101e657600080fd5b810190808035906020019064010000000081111561020357600080fd5b82018360208201111561021557600080fd5b8035906020019184600183028401116401000000008311171561023757600080fd5b91908080601f016020809104026020016040519081016040528093929190818152602001838380828437600081840152601f19601f820116905080830192505050505050509192919290505050610b8e565b6040518082815260200191505060405180910390f35b3480156102ab57600080fd5b506102e2600480360360408110156102c257600080fd5b810190808035906020019092919080359060200190929190505050610e86565b6040518082815260200191505060405180910390f35b34801561030457600080fd5b5061030d610eab565b005b34801561031b57600080fd5b5061035e6004803603602081101561033257600080fd5b81019080803573ffffffffffffffffffffffffffffffffffffffff169060200190929190505050610fc2565b6040518082815260200191505060405180910390f35b34801561038057600080fd5b506103ad6004803603602081101561039757600080fd5b810190808035906020019092919050505061100e565b604051808215151515815260200191505060405180910390f35b3480156103d357600080fd5b50610420600480360360408110156103ea57600080fd5b81019080803573ffffffffffffffffffffffffffffffffffffffff16906020019092919080359060200190929190505050611306565b6040518082815260200191505060405180910390f35b34801561044257600080fd5b5061046f6004803603602081101561045957600080fd5b8101908080359060200190929190505050611446565b604051808215151515815260200191505060405180910390f35b34801561049557600080fd5b506104c2600480360360208110156104ac57600080fd5b810190808035906020019092919050505061177a565b604051808681526020018581526020018473ffffffffffffffffffffffffffffffffffffffff1673ffffffffffffffffffffffffffffffffffffffff16815260200180602001838152602001828103825284818151815260200191508051906020019080838360005b8381101561054657808201518184015260208101905061052b565b50505050905090810190601f1680156105735780820380516001836020036101000a031916815260200191505b50965050505050505060405180910390f35b34801561059157600080fd5b506105be600480360360208110156105a857600080fd5b81019080803590602001909291905050506118e8565b604051808781526020018673ffffffffffffffffffffffffffffffffffffffff1673ffffffffffffffffffffffffffffffffffffffff16815260200185815260200180602001848152602001838152602001828103825285818151815260200191508051906020019080838360005b8381101561064857808201518184015260208101905061062d565b50505050905090810190601f1680156106755780820380516001836020036101000a031916815260200191505b5097505050505050505060405180910390f35b34801561069457600080fd5b5061069d611a73565b6040518082815260200191505060405180910390f35b3480156106bf57600080fd5b50610783600480360360408110156106d657600080fd5b8101908080359060200190929190803590602001906401000000008111156106fd57600080fd5b82018360208201111561070f57600080fd5b8035906020019184600183028401116401000000008311171561073157600080fd5b91908080601f016020809104026020016040519081016040528093929190818152602001838380828437600081840152601f19601f820116905080830192505050505050509192919290505050611a7d565b6040518082815260200191505060405180910390f35b3480156107a557600080fd5b506107d2600480360360208110156107bc57600080fd5b8101908080359060200190929190505050611dc1565b6040518082815260200191505060405180910390f35b3480156107f457600080fd5b506108216004803603602081101561080b57600080fd5b8101908080359060200190929190505050611de1565b604051808681526020018581526020018473ffffffffffffffffffffffffffffffffffffffff1673ffffffffffffffffffffffffffffffffffffffff1681526020018060200183600381111561087357fe5b60ff168152602001828103825284818151815260200191508051906020019080838360005b838110156108b3578082015181840152602081019050610898565b50505050905090810190601f1680156108e05780820380516001836020036101000a031916815260200191505b50965050505050505060405180910390f35b3480156108fe57600080fd5b506109356004803603604081101561091557600080fd5b810190808035906020019092919080359060200190929190505050611edc565b604051808215151515815260200191505060405180910390f35b34801561095b57600080fd5b506109926004803603604081101561097257600080fd5b8101908080359060200190929190803590602001909291905050506122c5565b6040518082815260200191505060405180910390f35b3480156109b457600080fd5b50610a01600480360360408110156109cb57600080fd5b81019080803573ffffffffffffffffffffffffffffffffffffffff1690602001909291908035906020019092919050505061246b565b6040518082815260200191505060405180910390f35b348015610a2357600080fd5b50610a5a60048036036040811015610a3a57600080fd5b81019080803590602001909291908035906020019092919050505061249b565b604051808215151515815260200191505060405180910390f35b348015610a8057600080fd5b50610aad60048036036020811015610a9757600080fd5b810190808035906020019092919050505061281f565b604051808781526020018673ffffffffffffffffffffffffffffffffffffffff1673ffffffffffffffffffffffffffffffffffffffff16815260200185815260200180602001848152602001836001811115610b0557fe5b60ff168152602001828103825285818151815260200191508051906020019080838360005b83811015610b45578082015181840152602081019050610b2a565b50505050905090810190601f168015610b725780820380516001836020036101000a031916815260200191505b5097505050505050505060405180910390f35b60008054905090565b6000600260149054906101000a900460ff16151515610c3b576040517f08c379a00000000000000000000000000000000000000000000000000000000081526004018080602001828103825260348152602001807f456d657267656e63792073746f7020697320656e61626c65642c20746869732081526020017f66756e6374696f6e2069732064697361626c656400000000000000000000000081525060400191505060405180910390fd5b600034111515610cb3576040517f08c379a00000000000000000000000000000000000000000000000000000000081526004018080602001828103825260158152602001807f54686520616d6f756e7420697320696e76616c6964000000000000000000000081525060200191505060405180910390fd5b600080549050807f9648cf7f2eb86b564ae3c4a466bc03e87267933667490eb8737a5a3f2a9b284d60405160405180910390a260c0604051908101604052808281526020013373ffffffffffffffffffffffffffffffffffffffff1681526020013481526020018481526020016000815260200160006001811115610d3457fe5b815250600360008381526020019081526020016000206000820151816000015560208201518160010160006101000a81548173ffffffffffffffffffffffffffffffffffffffff021916908373ffffffffffffffffffffffffffffffffffffffff160217905550604082015181600201556060820151816003019080519060200190610dc1929190612941565b506080820151816004015560a08201518160050160006101000a81548160ff02191690836001811115610df057fe5b0217905550905050610e0e600160005461292090919063ffffffff16565b600081905550600660003373ffffffffffffffffffffffffffffffffffffffff1673ffffffffffffffffffffffffffffffffffffffff16815260200190815260200160002081908060018154018082558091505090600182039060005260206000200160009091929091909150555080915050919050565b6005602052816000526040600020602052806000526040600020600091509150505481565b600260009054906101000a900473ffffffffffffffffffffffffffffffffffffffff1673ffffffffffffffffffffffffffffffffffffffff163373ffffffffffffffffffffffffffffffffffffffff16141515610f96576040517f08c379a00000000000000000000000000000000000000000000000000000000081526004018080602001828103825260288152602001807f4f6e6c79207468652061646d696e2063616e20706572666f726d20746869732081526020017f66756e6374696f6e00000000000000000000000000000000000000000000000081525060400191505060405180910390fd5b600260149054906101000a900460ff1615600260146101000a81548160ff021916908315150217905550565b6000600660008373ffffffffffffffffffffffffffffffffffffffff1673ffffffffffffffffffffffffffffffffffffffff168152602001908152602001600020805490509050919050565b6000816001600381111561101e57fe5b6004600083815260200190815260200160002060040160009054906101000a900460ff16600381111561104d57fe5b1415156110e8576040517f08c379a00000000000000000000000000000000000000000000000000000000081526004018080602001828103825260248152602001807f5375626d697373696f6e206d75737420626520696e204163636570746564207381526020017f746174650000000000000000000000000000000000000000000000000000000081525060400191505060405180910390fd5b6004600084815260200190815260200160002060020160009054906101000a900473ffffffffffffffffffffffffffffffffffffffff1673ffffffffffffffffffffffffffffffffffffffff163373ffffffffffffffffffffffffffffffffffffffff161415156111e7576040517f08c379a00000000000000000000000000000000000000000000000000000000081526004018080602001828103825260248152602001807f546865206d73672e73656e646572206d75737420626520746865207375626d6981526020017f747465720000000000000000000000000000000000000000000000000000000081525060400191505060405180910390fd5b6000600460008581526020019081526020016000206000015490506004600085815260200190815260200160002060020160009054906101000a900473ffffffffffffffffffffffffffffffffffffffff1673ffffffffffffffffffffffffffffffffffffffff166108fc60036000848152602001908152602001600020600201549081150290604051600060405180830381858888f19350505050158015611294573d6000803e3d6000fd5b5060036004600086815260200190815260200160002060040160006101000a81548160ff021916908360038111156112c857fe5b021790555083817fef53713ee4f072f79f4d516084e3f4d15f2cde709d2091235b37ae719c272dd660405160405180910390a3600192505050919050565b6000600660008473ffffffffffffffffffffffffffffffffffffffff1673ffffffffffffffffffffffffffffffffffffffff16815260200190815260200160002080549050821015156113e7576040517f08c379a000000000000000000000000000000000000000000000000000000000815260040180806020018281038252603f8152602001807f54686520696e646578206d757374206265206c657373207468616e207468652081526020017f6e756d626572206f6620626f756e7469657320666f722074686520757365720081525060400191505060405180910390fd5b600660008473ffffffffffffffffffffffffffffffffffffffff1673ffffffffffffffffffffffffffffffffffffffff1681526020019081526020016000208281548110151561143357fe5b9060005260206000200154905092915050565b6000600260149054906101000a900460ff1615156114f2576040517f08c379a00000000000000000000000000000000000000000000000000000000081526004018080602001828103825260228152602001807f43616e206f6e6c792062652063616c6c656420696e20616e20656d657267656e81526020017f637900000000000000000000000000000000000000000000000000000000000081525060400191505060405180910390fd5b813373ffffffffffffffffffffffffffffffffffffffff166003600083815260200190815260200160002060010160009054906101000a900473ffffffffffffffffffffffffffffffffffffffff1673ffffffffffffffffffffffffffffffffffffffff161415156115f2576040517f08c379a00000000000000000000000000000000000000000000000000000000081526004018080602001828103825260258152602001807f546865206f776e6572206f662074686520626f756e7479206973206d73672e7381526020017f656e64657200000000000000000000000000000000000000000000000000000081525060400191505060405180910390fd5b826000600181111561160057fe5b6003600083815260200190815260200160002060050160009054906101000a900460ff16600181111561162f57fe5b1415156116a4576040517f08c379a00000000000000000000000000000000000000000000000000000000081526004018080602001828103825260138152602001807f426f756e7479206d757374206265206f70656e0000000000000000000000000081525060200191505060405180910390fd5b6003600085815260200190815260200160002060010160009054906101000a900473ffffffffffffffffffffffffffffffffffffffff1673ffffffffffffffffffffffffffffffffffffffff166108fc60036000878152602001908152602001600020600201549081150290604051600060405180830381858888f19350505050158015611736573d6000803e3d6000fd5b5060016003600086815260200190815260200160002060050160006101000a81548160ff0219169083600181111561176a57fe5b0217905550600192505050919050565b60008060006060600060046000878152602001908152602001600020600001549450600460008781526020019081526020016000206001015493506004600087815260200190815260200160002060020160009054906101000a900473ffffffffffffffffffffffffffffffffffffffff169250600460008781526020019081526020016000206003018054600181600116156101000203166002900480601f0160208091040260200160405190810160405280929190818152602001828054600181600116156101000203166002900480156118985780601f1061186d57610100808354040283529160200191611898565b820191906000526020600020905b81548152906001019060200180831161187b57829003601f168201915b505050505091506004600087815260200190815260200160002060040160009054906101000a900460ff1660038111156118ce57fe5b905084848484849450945094509450945091939590929450565b60008060006060600080600360008881526020019081526020016000206000015495506003600088815260200190815260200160002060010160009054906101000a900473ffffffffffffffffffffffffffffffffffffffff16945060036000888152602001908152602001600020600201549350600360008881526020019081526020016000206003018054600181600116156101000203166002900480601f016020809104026020016040519081016040528092919081815260200182805460018160011615610100020316600290048015611a075780601f106119dc57610100808354040283529160200191611a07565b820191906000526020600020905b8154815290600101906020018083116119ea57829003601f168201915b50505050509250600360008881526020019081526020016000206004015491506003600088815260200190815260200160002060050160009054906101000a900460ff166001811115611a5657fe5b905085858585858595509550955095509550955091939550919395565b6000600154905090565b60008260006001811115611a8d57fe5b6003600083815260200190815260200160002060050160009054906101000a900460ff166001811115611abc57fe5b141515611b31576040517f08c379a00000000000000000000000000000000000000000000000000000000081526004018080602001828103825260138152602001807f426f756e7479206d757374206265206f70656e0000000000000000000000000081525060200191505060405180910390fd5b600260149054906101000a900460ff16151515611bdc576040517f08c379a00000000000000000000000000000000000000000000000000000000081526004018080602001828103825260348152602001807f456d657267656e63792073746f7020697320656e61626c65642c20746869732081526020017f66756e6374696f6e2069732064697361626c656400000000000000000000000081525060400191505060405180910390fd5b6000600154905060006003600087815260200190815260200160002060040154905081867fd55e7566f1a8979f4d491faa170e9eb764d7e6bb582f1db922a4b7876c42225a60405160405180910390a360a0604051908101604052808781526020018381526020013373ffffffffffffffffffffffffffffffffffffffff16815260200186815260200160006003811115611c7357fe5b81525060046000848152602001908152602001600020600082015181600001556020820151816001015560408201518160020160006101000a81548173ffffffffffffffffffffffffffffffffffffffff021916908373ffffffffffffffffffffffffffffffffffffffff1602179055506060820151816003019080519060200190611d00929190612941565b5060808201518160040160006101000a81548160ff02191690836003811115611d2557fe5b02179055509050508160056000888152602001908152602001600020600083815260200190815260200160002081905550611d6b6001805461292090919063ffffffff16565b600181905550611d9b6001600360008981526020019081526020016000206004015461292090919063ffffffff16565b600360008881526020019081526020016000206004018190555081935050505092915050565b600060036000838152602001908152602001600020600401549050919050565b60046020528060005260406000206000915090508060000154908060010154908060020160009054906101000a900473ffffffffffffffffffffffffffffffffffffffff1690806003018054600181600116156101000203166002900480601f016020809104026020016040519081016040528092919081815260200182805460018160011615610100020316600290048015611ebf5780601f10611e9457610100808354040283529160200191611ebf565b820191906000526020600020905b815481529060010190602001808311611ea257829003601f168201915b5050505050908060040160009054906101000a900460ff16905085565b60008160006003811115611eec57fe5b6004600083815260200190815260200160002060040160009054906101000a900460ff166003811115611f1b57fe5b141515611f90576040517f08c379a00000000000000000000000000000000000000000000000000000000081526004018080602001828103825260178152602001807f5375626d697373696f6e206d757374206265206d61646500000000000000000081525060200191505060405180910390fd5b833373ffffffffffffffffffffffffffffffffffffffff166003600083815260200190815260200160002060010160009054906101000a900473ffffffffffffffffffffffffffffffffffffffff1673ffffffffffffffffffffffffffffffffffffffff16141515612090576040517f08c379a00000000000000000000000000000000000000000000000000000000081526004018080602001828103825260258152602001807f546865206f776e6572206f662074686520626f756e7479206973206d73672e7381526020017f656e64657200000000000000000000000000000000000000000000000000000081525060400191505060405180910390fd5b846000600181111561209e57fe5b6003600083815260200190815260200160002060050160009054906101000a900460ff1660018111156120cd57fe5b141515612142576040517f08c379a00000000000000000000000000000000000000000000000000000000081526004018080602001828103825260138152602001807f426f756e7479206d757374206265206f70656e0000000000000000000000000081525060200191505060405180910390fd5b600260149054906101000a900460ff161515156121ed576040517f08c379a00000000000000000000000000000000000000000000000000000000081526004018080602001828103825260348152602001807f456d657267656e63792073746f7020697320656e61626c65642c20746869732081526020017f66756e6374696f6e2069732064697361626c656400000000000000000000000081525060400191505060405180910390fd5b60016004600087815260200190815260200160002060040160006101000a81548160ff0219169083600381111561222057fe5b021790555060016003600088815260200190815260200160002060050160006101000a81548160ff0219169083600181111561225857fe5b021790555084867fb76abbe4f718d3a5437da4640abcd02e3a2e2975873bd4b168d55f8df507780b60405160405180910390a3857f6cc09e7b5c3e49861ebe8f6867e1618fbfc14c8d0e968fde37c4243ca02a6f8360405160405180910390a26001935050505092915050565b6000805483101515612365576040517f08c379a00000000000000000000000000000000000000000000000000000000081526004018080602001828103825260308152602001807f54686520626f756e7479204964206d757374206265206c657373207468616e2081526020017f74686520626f756e747920636f756e740000000000000000000000000000000081525060400191505060405180910390fd5b60036000848152602001908152602001600020600401548210151561243e576040517f08c379a00000000000000000000000000000000000000000000000000000000081526004018080602001828103825260448152602001807f54686520696e646578206d757374206265206c657373207468616e207468652081526020017f6e756d626572206f66207375626d697373696f6e7320666f722074686520626f81526020017f756e74790000000000000000000000000000000000000000000000000000000081525060600191505060405180910390fd5b60056000848152602001908152602001600020600083815260200190815260200160002054905092915050565b60066020528160005260406000208181548110151561248657fe5b90600052602060002001600091509150505481565b600081600060038111156124ab57fe5b6004600083815260200190815260200160002060040160009054906101000a900460ff1660038111156124da57fe5b14151561254f576040517f08c379a00000000000000000000000000000000000000000000000000000000081526004018080602001828103825260178152602001807f5375626d697373696f6e206d757374206265206d61646500000000000000000081525060200191505060405180910390fd5b833373ffffffffffffffffffffffffffffffffffffffff166003600083815260200190815260200160002060010160009054906101000a900473ffffffffffffffffffffffffffffffffffffffff1673ffffffffffffffffffffffffffffffffffffffff1614151561264f576040517f08c379a00000000000000000000000000000000000000000000000000000000081526004018080602001828103825260258152602001807f546865206f776e6572206f662074686520626f756e7479206973206d73672e7381526020017f656e64657200000000000000000000000000000000000000000000000000000081525060400191505060405180910390fd5b846000600181111561265d57fe5b6003600083815260200190815260200160002060050160009054906101000a900460ff16600181111561268c57fe5b141515612701576040517f08c379a00000000000000000000000000000000000000000000000000000000081526004018080602001828103825260138152602001807f426f756e7479206d757374206265206f70656e0000000000000000000000000081525060200191505060405180910390fd5b600260149054906101000a900460ff161515156127ac576040517f08c379a00000000000000000000000000000000000000000000000000000000081526004018080602001828103825260348152602001807f456d657267656e63792073746f7020697320656e61626c65642c20746869732081526020017f66756e6374696f6e2069732064697361626c656400000000000000000000000081525060400191505060405180910390fd5b60026004600087815260200190815260200160002060040160006101000a81548160ff021916908360038111156127df57fe5b021790555084867f5303d327e6fbcf486f11a1638b93f30487213df5241a4daa219aaa44f1bab58760405160405180910390a36001935050505092915050565b60036020528060005260406000206000915090508060000154908060010160009054906101000a900473ffffffffffffffffffffffffffffffffffffffff1690806002015490806003018054600181600116156101000203166002900480601f0160208091040260200160405190810160405280929190818152602001828054600181600116156101000203166002900480156128fd5780601f106128d2576101008083540402835291602001916128fd565b820191906000526020600020905b8154815290600101906020018083116128e057829003601f168201915b5050505050908060040154908060050160009054906101000a900460ff16905086565b600080828401905083811015151561293757600080fd5b8091505092915050565b828054600181600116156101000203166002900490600052602060002090601f016020900481019282601f1061298257805160ff19168380011785556129b0565b828001600101855582156129b0579182015b828111156129af578251825591602001919060010190612994565b5b5090506129bd91906129c1565b5090565b6129e391905b808211156129df5760008160009055506001016129c7565b5090565b9056fea165627a7a72305820dc7a578202271206f7236c2884ab52423ec6487691008ff79e7f436d6cb5fffc0029",
  "source": "pragma solidity ^0.5.0;\nimport \"./SafeMath.sol\";\n\n/** @title Bounty Babe */\n/** @author Audrey Worsham */\ncontract BountyBabe {\n\n    using SafeMath for uint;\n    uint bountyCount;\n    uint submissionCount;\n    address admin;\n    bool private stopped = false;\n\n    mapping(uint => Bounty) public bounties;\n    mapping(uint => Submission) public submissions;\n    mapping(uint => mapping(uint => uint)) public bounties_submissions;\n    mapping(address => uint[]) public users_bounties;\n\n    // The state of a bounty\n    enum BountyState { \n        Open, // The bounty is open and accepting submissions \n        Closed // The bounty has been closed and is no longer accepting submissions\n    }\n    // The state of a submission\n    enum SubmissionState {\n        Submitted, // A submission is made for a bounty\n        Accepted, // A submission is accepted for a bounty\n        Rejected, // A submission is rejected for a bounty\n        Paid // The submitter receives paymant for their work\n    }\n\n    struct Bounty {\n        uint bountyId;\n        address payable creator;\n        uint amount;\n        string description;\n        uint numSubmissions;\n        BountyState bountyState;\n    }\n\n    struct Submission {\n        uint bountyId;\n        uint submissionId;\n        address payable submitter;\n        string description;\n        SubmissionState submissionState;\n\n    }\n\n    // Events that will be emitted on changes\n    event Open(uint indexed bountyId); // Fired upon creation of a bounty\n    event Closed(uint indexed bountyId); // Fired when a bounty is no longer taking submissions\n    event Submitted(uint indexed bountyId, uint indexed submissionId); // Fired when a submission has been made\n    event Accepted(uint indexed bountyId, uint indexed submissionId); // Fired when a submission has been accepted for a bounty\n    event Rejected(uint indexed bountyId, uint indexed submissionId); // Fired when a submission has been rejected for a bounty\n    event Paid(uint indexed bountyId, uint indexed submissionId); // Fired when the submitter receives payment\n\n    constructor() public {\n        admin = msg.sender;\n        bountyCount = 0;\n        submissionCount = 0;\n    }\n    // Making sure the bounty is open using the bounty Id\n    modifier bountyMustBeOpen(uint bountyId) {\n        require(bounties[bountyId].bountyState == BountyState.Open, \"Bounty must be open\");\n        _;\n    }\n\n    // Making sure the submission is made using the submission Id\n    modifier mustBeSubmitted(uint submissionId) {\n        require(submissions[submissionId].submissionState == SubmissionState.Submitted, \"Submission must be made\");\n        _;\n    }\n\n    // Making sure the msg.sender of the bounty is the owner\n    modifier onlyBountyOwner(uint bountyId) {\n        require(bounties[bountyId].creator == msg.sender, \"The owner of the bounty is msg.sender\");\n        _;\n    }\n\n    // Making sure the submission is accepted for a bounty\n    modifier mustBeAccepted(uint submissionId) {\n        require(submissions[submissionId].submissionState == SubmissionState.Accepted, \"Submission must be in Accepted state\");\n        _;\n    }\n\n    // Making sure all actions in the contract are suspended if a bug is discovered\n    modifier stopInEmergency {\n        require(!stopped, \"Emergency stop is enabled, this function is disabled\");\n        _;\n    }\n\n    // Making sure the bounty creator can still withdraw funds if a bug is discovered\n    modifier onlyInEmergency {\n        require(stopped, \"Can only be called in an emergency\");\n        _;\n    }\n\n    // Making sure only the admin can access certain functions\n    modifier isAdmin() {\n        require(msg.sender == admin, \"Only the admin can perform this function\");\n        _;\n    }\n\n\n    /**  @dev Makes sure only the admin can stop the contract\n      */\n    function toggleContractActive() public isAdmin {\n        stopped = !stopped;\n    }\n\n    /** @dev Creates a bounty\n      * @param description Description of the bounty being created\n      * @return The Id of the bounty created\n      */\n    function createBounty(string memory description) public payable stopInEmergency() returns(uint) {\n        require(msg.value > 0, \"The amount is invalid\");\n        uint bountyId = bountyCount;\n        emit Open(bountyId);\n        bounties[bountyId] = Bounty({\n            bountyId: bountyId,\n            creator: msg.sender,\n            amount: msg.value,\n            description: description,\n            numSubmissions: 0,\n            bountyState: BountyState.Open\n        });\n        bountyCount = bountyCount.add(1);\n        users_bounties[msg.sender].push(bountyId);\n        return bountyId;\n    }\n\n    /** @dev Creates a submission to a specific bounty\n      * @param bountyId The Id of the bounty the submission is for\n      * @param description Description of the submission being created\n      * @return The Id of the submission created\n      */\n    function createSubmission(uint bountyId, string memory description)\n        public\n        bountyMustBeOpen(bountyId)\n        stopInEmergency()\n        returns(uint)\n    {\n        uint submissionId = submissionCount;\n        uint submissionIndex = bounties[bountyId].numSubmissions;\n        \n        emit Submitted(bountyId, submissionId);\n\n        submissions[submissionId] = Submission({\n            bountyId: bountyId,\n            submissionId: submissionId,\n            submitter: msg.sender,\n            description: description,\n            submissionState: SubmissionState.Submitted\n        });\n        \n        bounties_submissions[bountyId][submissionIndex] = submissionId;\n        submissionCount = submissionCount.add(1);\n        bounties[bountyId].numSubmissions = bounties[bountyId].numSubmissions.add(1);\n        return submissionId;\n    }\n\n    /** @dev Gets the number of bounties submitted\n      * @return The number of bounties submitted\n      */\n    function getBountyCount() public view returns(uint) {\n        return bountyCount;\n    }\n\n    /** @dev Gets the total number of submissions\n      * @return The total number of submissions\n      */\n    function getSubmissionCount() public view returns(uint) {\n        return submissionCount;\n    }\n\n    /** @dev Gets the number of submissions for a bounty\n      * @param bountyId The Id of the bounty\n      * @return The total number of submissions for that bounty\n      */\n    function getBountySubmissionCount(uint bountyId) public view returns(uint) {\n        return bounties[bountyId].numSubmissions;\n    }\n\n    /** @dev Gets the Id of a submission by the index in bounties_submissions array\n      * @param bountyId The Id of the bounty\n      * @param index The index in the bounties_submissions array\n      * @return The bounty's submission id\n      */\n    function getBountySubmissionIdByIndex(uint bountyId, uint index) public view returns(uint) {\n        require(bountyId < bountyCount, \"The bounty Id must be less than the bounty count\");\n        require(index < bounties[bountyId].numSubmissions, \"The index must be less than the number of submissions for the bounty\");\n        return bounties_submissions[bountyId][index];\n    }\n\n    /** @dev Gets the user's bounty Id by the user's address and index number\n      * @param who The user\n      * @param index The index in the users_bounties array\n      * @return The user's bounty Id\n      */\n    function getUserBountyIdByIndex(address who, uint index) public view returns(uint) {\n        require(index < users_bounties[who].length, \"The index must be less than the number of bounties for the user\");\n        return users_bounties[who][index];\n    }\n\n    /** @dev Retrieves a bounty using a bounty Id\n      * @param _bountyId The Id of the bounty\n      * @return All aspects of a bounty\n      */\n    function fetchBounty(\n        uint _bountyId\n    ) \n        public view \n        returns (\n            uint bountyId,\n            address creator,\n            uint amount,\n            string memory description,\n            uint numSubmissions,\n            uint bountyState\n        )\n    {\n        bountyId = bounties[_bountyId].bountyId;\n        creator = bounties[_bountyId].creator;\n        amount = bounties[_bountyId].amount;\n        description = bounties[_bountyId].description;\n        numSubmissions = bounties[_bountyId].numSubmissions;\n        bountyState = uint(bounties[_bountyId].bountyState);\n        return (bountyId, creator, amount, description, numSubmissions, bountyState);\n\n    }\n\n    /** @dev Retrieves a submission using a submission Id\n      * @param _submissionId The Id of the bounty\n      * @return All aspects of a submission\n      */\n    function fetchSubmission(\n        uint _submissionId\n    )\n        public view\n        returns (\n            uint bountyId,\n            uint submissionId,\n            address submitter,\n            string memory description,\n            uint submissionState\n        ) \n    {\n        bountyId = submissions[_submissionId].bountyId;\n        submissionId = submissions[_submissionId].submissionId;\n        submitter = submissions[_submissionId].submitter;\n        description = submissions[_submissionId].description;\n        submissionState = uint(submissions[_submissionId].submissionState);\n        return (bountyId, submissionId, submitter, description, submissionState);\n    }\n\n    /** @dev Gets the number of bounties a user has submitted\n      * @param _who The address of the user\n      * @return The number of bounties for the user\n      */\n    function userNumBounties(address _who) public view returns(uint) {\n        return users_bounties[_who].length;\n    }\n\n    /** @dev Accepts a submission for a bounty\n      * @param bountyId The Id of the bounty\n      * @param submissionId The Id of the submission\n      * @return True if the submission is accepted\n      */\n    function acceptSubmission(uint bountyId, uint submissionId)\n        public \n        mustBeSubmitted(submissionId)\n        onlyBountyOwner(bountyId)\n        bountyMustBeOpen(bountyId)\n        stopInEmergency()\n        returns (bool) \n    {\n        submissions[submissionId].submissionState = SubmissionState.Accepted;\n        bounties[bountyId].bountyState = BountyState.Closed;\n        emit Accepted(bountyId, submissionId);\n        emit Closed(bountyId);\n        return true;\n    }\n\n    /** @dev Rejects a submission for a bounty\n      * @param bountyId The Id of the bounty\n      * @param submissionId The Id of the submission\n      * @return True if the submission is rejected\n      */\n    function rejectSubmission(uint bountyId, uint submissionId)\n        public \n        mustBeSubmitted(submissionId)\n        onlyBountyOwner(bountyId)\n        bountyMustBeOpen(bountyId)\n        stopInEmergency()\n        returns (bool)\n    {\n        submissions[submissionId].submissionState = SubmissionState.Rejected;\n        emit Rejected(bountyId, submissionId);\n        return true;\n    }\n\n    /** @dev Submitter receives payment for bounty\n      * @param submissionId The Id of the submission\n      * @return True if the submitter is paid\n      */\n    function withdrawBountyAmount(uint submissionId) public mustBeAccepted(submissionId) returns(bool) {\n        require(msg.sender == submissions[submissionId].submitter, \"The msg.sender must be the submitter\");\n        uint bountyId = submissions[submissionId].bountyId;\n        submissions[submissionId].submitter.transfer(bounties[bountyId].amount);\n        submissions[submissionId].submissionState = SubmissionState.Paid;\n        emit Paid(bountyId, submissionId);\n        return true;\n    }\n\n    /** @dev The creator of a bounty can withdraw his funds\n      * @param bountyId The id of the bounty\n      * @return True if the funds were withdrawn\n      */\n    function emergencyWithdraw(uint bountyId)\n        public \n        onlyInEmergency()\n        onlyBountyOwner(bountyId)\n        bountyMustBeOpen(bountyId)\n        returns(bool)\n    {\n        bounties[bountyId].creator.transfer(bounties[bountyId].amount);\n        bounties[bountyId].bountyState = BountyState.Closed;\n        return true;\n    }\n\n    // Fallback function\n    function() external payable { \n        require(false, \"No message data -- fallback function failed\");\n    }\n\n}\n",
  "sourcePath": "/home/audrey/projects/bounty-babe/contracts/BountyBabe.sol",
  "compiler": {
    "name": "solc",
    "version": "0.5.0+commit.1d4f565a.Emscripten.clang"
  },
  "schemaVersion": "3.0.1",
  "updatedAt": "2019-01-23T17:28:51.295Z",
  "devdoc": {
    "author": "Audrey Worsham ",
    "methods": {
      "acceptSubmission(uint256,uint256)": {
        "details": "Accepts a submission for a bounty",
        "params": {
          "bountyId": "The Id of the bounty",
          "submissionId": "The Id of the submission"
        },
        "return": "True if the submission is accepted"
      },
      "createBounty(string)": {
        "details": "Creates a bounty",
        "params": {
          "description": "Description of the bounty being created"
        },
        "return": "The Id of the bounty created"
      },
      "createSubmission(uint256,string)": {
        "details": "Creates a submission to a specific bounty",
        "params": {
          "bountyId": "The Id of the bounty the submission is for",
          "description": "Description of the submission being created"
        },
        "return": "The Id of the submission created"
      },
      "emergencyWithdraw(uint256)": {
        "details": "The creator of a bounty can withdraw his funds",
        "params": {
          "bountyId": "The id of the bounty"
        },
        "return": "True if the funds were withdrawn"
      },
      "fetchBounty(uint256)": {
        "details": "Retrieves a bounty using a bounty Id",
        "params": {
          "_bountyId": "The Id of the bounty"
        },
        "return": "All aspects of a bounty"
      },
      "fetchSubmission(uint256)": {
        "details": "Retrieves a submission using a submission Id",
        "params": {
          "_submissionId": "The Id of the bounty"
        },
        "return": "All aspects of a submission"
      },
      "getBountyCount()": {
        "details": "Gets the number of bounties submitted",
        "return": "The number of bounties submitted"
      },
      "getBountySubmissionCount(uint256)": {
        "details": "Gets the number of submissions for a bounty",
        "params": {
          "bountyId": "The Id of the bounty"
        },
        "return": "The total number of submissions for that bounty"
      },
      "getBountySubmissionIdByIndex(uint256,uint256)": {
        "details": "Gets the Id of a submission by the index in bounties_submissions array",
        "params": {
          "bountyId": "The Id of the bounty",
          "index": "The index in the bounties_submissions array"
        },
        "return": "The bounty's submission id"
      },
      "getSubmissionCount()": {
        "details": "Gets the total number of submissions",
        "return": "The total number of submissions"
      },
      "getUserBountyIdByIndex(address,uint256)": {
        "details": "Gets the user's bounty Id by the user's address and index number",
        "params": {
          "index": "The index in the users_bounties array",
          "who": "The user"
        },
        "return": "The user's bounty Id"
      },
      "rejectSubmission(uint256,uint256)": {
        "details": "Rejects a submission for a bounty",
        "params": {
          "bountyId": "The Id of the bounty",
          "submissionId": "The Id of the submission"
        },
        "return": "True if the submission is rejected"
      },
      "toggleContractActive()": {
        "details": "Makes sure only the admin can stop the contract"
      },
      "userNumBounties(address)": {
        "details": "Gets the number of bounties a user has submitted",
        "params": {
          "_who": "The address of the user"
        },
        "return": "The number of bounties for the user"
      },
      "withdrawBountyAmount(uint256)": {
        "details": "Submitter receives payment for bounty",
        "params": {
          "submissionId": "The Id of the submission"
        },
        "return": "True if the submitter is paid"
      }
    }
  },
  "userdoc": {
    "methods": {}
  }
}